:100000000C9463000C948B000C948B000C94EA0409
:100010000C94EA040C94EA040C948B000C948B006E
:100020000C948B000C948B000C948B000C948B0024
:100030000C948B000C948B000C948B000C948B0014
:100040000C94A0040C948B000C946E040C94480443
:100050000C948B000C948B000C948B000C948B00F4
:100060000C948B000C948B000000000024002700EF
:100070002A0000000008000201000003040700003D
:1000800000000000000000000000230026002900FE
:1000900000000000250028002B00040404040404D0
:1000A0000404020202020202030303030303010227
:1000B00004081020408001020408102001020408F6
:1000C00010206205370911241FBECFEFD8E0DEBF34
:1000D000CDBF12E0A0E0B1E0ECE1F3E102C0059099
:1000E0000D92A83BB107D9F724E0A8EBB2E001C01C
:1000F0001D92A738B207E1F710E0C2E6D0E004C0D5
:100100002197FE010E947B09C136D107C9F70E94E1
:10011000AB060C9481090C9400000895089508958D
:10012000089508950895089508950895AF92BF928F
:10013000CF92DF92EF92FF920F931F93CF93DF93B3
:100140006C017B018B01040F151FEB015E01AE18E2
:10015000BF08C017D10759F06991D601ED91FC9104
:100160000190F081E02DC6010995892B79F7C50131
:10017000DF91CF911F910F91FF90EF90DF90CF9083
:10018000BF90AF900895FC01538D448D252F30E032
:10019000842F90E0821B930B541710F0CF96089594
:1001A00001970895FC01918D828D981761F0A28DC1
:1001B000AE0FBF2FB11D5D968C91928D9F5F9F7387
:1001C000928F90E008958FEF9FEF0895FC01918D3D
:1001D000828D981731F0828DE80FF11D858D90E0AA
:1001E00008958FEF9FEF0895FC01918D228D892F47
:1001F00090E0805C9F4F821B91098F73992708952F
:100200008BE093E00E94F40021E0892B09F420E0C8
:10021000822F089580E090E0892B29F00E94000150
:1002200081110C9400000895FC01A48DA80FB92F32
:10023000B11DA35ABF4F2C91848D90E001968F730E
:100240009927848FA689B7892C93A089B1898C912D
:10025000837080648C93938D848D981306C002887C
:10026000F389E02D80818F7D80830895EF92FF9246
:100270000F931F93CF93DF93EC0181E0888F9B8DC9
:100280008C8D98131AC0E889F989808185FF15C083
:100290009FB7F894EE89FF896083E889F9898081A6
:1002A0008370806480839FBF81E090E0DF91CF9175
:1002B0001F910F91FF90EF900895F62E0B8D10E097
:1002C0000F5F1F4F0F731127E02E8C8D8E110CC006
:1002D0000FB607FCFACFE889F989808185FFF5CF51
:1002E000CE010E941401F1CFEB8DEC0FFD2FF11D1B
:1002F000E35AFF4FF0829FB7F8940B8FEA89FB898E
:1003000080818062CFCFCF93DF93EC01888D8823EB
:10031000B9F0AA89BB89E889F9898C9185FD03C068
:10032000808186FD0DC00FB607FCF7CF8C9185FF4D
:10033000F2CF808185FFEDCFCE010E941401E9CF7D
:10034000DF91CF910895833081F028F4813099F0C6
:100350008230A9F008958730A9F08830C9F0843040
:10036000B1F4809180008F7D03C0809180008F77F1
:1003700080938000089584B58F7784BD089584B5F7
:100380008F7DFBCF8091B0008F778093B000089570
:100390008091B0008F7DF9CFCF93DF93282F30E08D
:1003A000F901EE58FF4F8491F901E255FF4FD491C6
:1003B000F901E656FF4FC491CC23A1F081110E94B0
:1003C000A301EC2FF0E0EE0FFF1FEA57FF4FA591BE
:1003D000B491EC91ED2381E090E009F480E0DF91AD
:1003E000CF91089580E090E0FACF1F93CF93DF93F1
:1003F000282F30E0F901EE58FF4F8491F901E255C2
:10040000FF4FD491F901E656FF4FC491CC23A9F0D8
:10041000162F81110E94A301EC2FF0E0EE0FFF1FB9
:10042000E057FF4FA591B4918FB7F894EC9111115B
:1004300008C0D095DE23DC938FBFDF91CF911F9151
:100440000895DE2BF8CFCF93DF9390E0FC01E255C7
:10045000FF4F249186569F4FFC0184918823D1F051
:1004600090E0880F991FFC01E859FF4FA591B491C6
:10047000FC01E057FF4FC591D49161110EC09FB7A9
:10048000F8948C91E22FE0958E238C932881E223BF
:10049000E8839FBFDF91CF9108958FB7F894EC91D7
:1004A000E22BEC938FBFF6CF3FB7F8948091FD021B
:1004B0009091FE02A091FF02B091000326B5A89B87
:1004C00005C02F3F19F00196A11DB11D3FBFBA2FE6
:1004D000A92F982F8827BC01CD01620F711D811DA6
:1004E000911D42E0660F771F881F991F4A95D1F72B
:1004F00008958F929F92AF92BF92CF92DF92EF9228
:10050000FF920E9454024B015C0184E6C82ED12C5C
:10051000E12CF12C0E945402681979098A099B097F
:10052000683E734081059105A8F321E0C21AD10805
:10053000E108F10888EE880E83E0981EA11CB11C2A
:10054000C114D104E104F10429F7FF90EF90DF908A
:10055000CF90BF90AF909F908F900895209103030C
:10056000309104032817390771F4909101038091A9
:100570000203981741F0E0910103F0E0E854FD4FC9
:10058000808190E008958FEF9FEF08950895EF9296
:10059000FF920F931F93CF93DF93DC015C96ED9056
:1005A000FC905D97E114F10479F481E090E01396FA
:1005B0009C938E93129790E080E0DF91CF911F91F2
:1005C0000F91FF90EF9008955196ED91FC91529705
:1005D00050968C915097982F90950FB75E962C91CE
:1005E0005E97122F127021FD6095F89420811123DF
:1005F00019F1282B2083E7012197F1F728E0462FF6
:1006000050E0308160FF1AC0382B3083E70121971A
:10061000F1F7BA0175956795215089F7112381F09B
:100620008081892380830FBF5C968D919C91019777
:10063000F1F781E090E0C1CF2923DCCF3923E5CF6A
:100640009081892BEFCF2091030330910403281769
:10065000390771F4809102032091010390E0805CDE
:100660009F4F821B910960E470E00E945309089536
:1006700090E080E00895209103033091040328174F
:100680003907B9F49091010380910203981789F01A
:10069000E0910103F0E0E854FD4F808120910103D7
:1006A00030E02F5F3F4F2F7333272093010390E0FB
:1006B00008958FEF9FEF089590E080E00895CF9325
:1006C000DF93009729F1EC01C05CDF4F88819981AD
:1006D0000097F1F0DC01ED91FC910190F081E02DAB
:1006E00069EF099588819981DC01ED91FC91019078
:1006F000F081E02D62E0099588819981DC01ED911E
:10070000FC910190F081E02D65E0DF91CF9109949B
:10071000DF91CF910895CF92DF92EF92FF920F93E6
:100720001F93CF93DF93009709F473C0FC01E05847
:10073000FF4FC080CC2009F46CC0EC01C05CDF4FDF
:10074000A881B981109709F464C0FC01EF57FF4FED
:10075000E080F180F70111810081ED91FC9111970A
:100760000190F081E02D60EFCD010995888199819C
:10077000DC01ED91FC910190F081E02D69E7099594
:1007800088819981DC01ED91FC910190F081E02D4F
:10079000602F099588819981DC01ED91FC91019090
:1007A000F081E02D612F09958701EC2DE250FF0BC0
:1007B0006F0188819981DC01ED91FC910190F081BC
:1007C000E02D98012E193F092C153D05C0F4D801E4
:1007D00012966C916F77099588819981F8016281F1
:1007E00070E0660F672F661F770BDC01ED91FC91BF
:1007F0000190F081E02D09950F5F1F4FDACF67EF71
:10080000DF91CF911F910F91FF90EF90DF90CF90EC
:100810000994DF91CF911F910F91FF90EF90DF909E
:10082000CF900895FB0101900020E9F73197AF01C7
:10083000461B570BDC01ED91FC910280F381E02D0A
:100840000994CF93DF936AE188E694E00E94C7029F
:10085000EC0164E271E088E694E00E9412048C0FDF
:100860009D1FDF91CF9108950F931F93CF93DF9337
:10087000EC010E9412048C0164E271E0CE010E943E
:100880001204800F911FDF91CF911F910F91089556
:100890001F920F920FB60F9211242F933F934F93F5
:1008A0005F936F937F938F939F93AF93BF93EF93D8
:1008B000FF938BE093E00E941401FF91EF91BF91B1
:1008C000AF919F918F917F916F915F914F913F91E8
:1008D0002F910F900FBE0F901F9018951F920F929F
:1008E0000FB60F9211242F938F939F93EF93FF9343
:1008F000E0911B03F0911C038081E0912103F091B2
:10090000220382FD1BC09081809124038F5F8F732F
:1009100020912503821741F0E0912403F0E0E55F88
:10092000FC4F958F80932403FF91EF919F918F91BE
:100930002F910F900FBE0F901F9018958081F4CFCC
:100940001F920F920FB60F9211242F933F938F9304
:100950009F93AF93BF938091F9029091FA02A09177
:10096000FB02B091FC023091F80223E0230F2D37F7
:1009700058F50196A11DB11D2093F8028093F9024C
:100980009093FA02A093FB02B093FC028091FD02C7
:100990009091FE02A091FF02B09100030196A11D6B
:1009A000B11D8093FD029093FE02A093FF02B093CD
:1009B0000003BF91AF919F918F913F912F910F9025
:1009C0000FBE0F901F90189526E8230F0296A11DC9
:1009D000B11DD2CF1F920F920FB60F9211242F93F9
:1009E0003F934F935F936F937F938F939F93AF93B7
:1009F000BF93EF93FF93E0910303F09104033097CB
:100A000049F0A685B7858585968D91FF14C09C9188
:100A10008923A1F4FF91EF91BF91AF919F918F91A5
:100A20007F916F915F914F913F912F910F900FBEEA
:100A30000F901F9018959C91892361F7A389B48921
:100A40009C918589809589238C93868997890197C4
:100A5000F1F7608D718DA685B785558538E020E06A
:100A6000CB010197F1F7822F90E095958795282F7C
:100A70004C91452309F02068315091F7868D81FD16
:100A800020958091020390E001968F739927309111
:100A90000103381799F0A0910203B0E0A854BD4FAC
:100AA0002C9380930203828D938D0197F1F7A38994
:100AB000B4898C919589892B8C93ACCF868D81607C
:100AC000868FF1CF10920E0310920D0348EE53E083
:100AD00060E070E040930F035093100360931103A4
:100AE0007093120384E091E090930C0380930B03C6
:100AF00085EC90E0909318038093170384EC90E0CA
:100B000090931A038093190380EC90E090931C0358
:100B100080931B0381EC90E090931E0380931D0350
:100B200082EC90E09093200380931F0386EC90E08A
:100B300090932203809321031092240310922503A3
:100B4000109226031092270388EA93E01092E9039B
:100B50001092E8039093EC038093EB0320E430E0E1
:100B60003093EE032093ED031092EF031092F00305
:100B70001092F2031092F1031092F3031092F50316
:100B80001092F4031092F7031092F6031092F903F7
:100B90001092F8031092FB031092FA031092FD03D7
:100BA0001092FC031092FF031092FE0310920104B6
:100BB0001092000410920704109206041092090487
:100BC0001092080410920B0410920A0410920D0463
:100BD00010920C0410921B0410921A041092EA0353
:100BE0001092280410922A0410922904109267048B
:100BF0002DE830E030930F0420930E042EE830E00F
:100C000030931104209310042FE830E03093130444
:100C10002093120420E930E030931504209314044B
:100C200021E930E0309317042093160422E930E0E4
:100C3000309319042093180423E930E030931D0405
:100C400020931C0424E930E030931F0420931E04F9
:100C50002BE833E030932104209320049093030485
:100C6000809302042FE533E0309323042093220481
:100C7000909305048093040485E990E09093250403
:100C80008093240410926B0410926A0440936C04C5
:100C900050936D0460936E0470936F0486E191E04D
:100CA000909369048093680410927F0410927E04EC
:100CB0001092810410928004109283041092820496
:100CC0001092850410928404609186046E7F6D7F7B
:100CD000609386046695617081E0682783E00E94D6
:100CE000F50161E083E00E942302E1EBF0E0E49192
:100CF000E0937804EDE9F0E0E491F0E0EE0FFF1FFF
:100D0000E057FF4F8591949190937A0480937904F2
:100D100060E082E00E9423028091860481FD04C08D
:100D200061E082E00E94F50182E080937404E0EBD0
:100D3000F0E0E491E0937504ECE9F0E0E491F0E098
:100D4000EE0FFF1FEA57FF4F859194919093770420
:100D5000809376040895789484B5826084BD84B5C8
:100D6000816084BD85B5826085BD85B5816085BDA6
:100D700080916E00816080936E001092810080915E
:100D800081008260809381008091810081608093E6
:100D90008100809180008160809380008091B1000B
:100DA00084608093B1008091B00081608093B00036
:100DB00080917A00846080937A0080917A008260CA
:100DC00080937A0080917A00816080937A0080918C
:100DD0007A00806880937A001092C10060E084E01D
:100DE0000E94230260E089E00E94230260E085E027
:100DF0000E94230260E086E00E94230260E08AE015
:100E00000E94230260E08BE00E94230260E087E002
:100E10000E94230260E088E00E94230261E085E0F6
:100E20000E94230261E084E00E94230261E086E0E8
:100E30000E94230261E08AE00E94230261E089E0CF
:100E40000E942302E0911B03F0911C0382E0808347
:100E5000E0911703F09118031082E0911903F091CB
:100E60001A038FEC808310922303E0911F03F0910B
:100E7000200386E08083E0911D03F0911E038081B2
:100E800080618083E0911D03F0911E038081886062
:100E90008083E0911D03F0911E0380818068808330
:100EA000E0911D03F0911E0380818F7D808310925D
:100EB0008304109282041092810410928004109294
:100EC0007F0410927E048DE991E0909385048093D5
:100ED000840490917404963108F047C02DEB30E003
:100EE00030937F0420937E042BE931E0309381041A
:100EF000209380042CE231E0309383042093820419
:100F00002091680084E0983048F031E09E3008F489
:100F100030E081E001C0880F3A95EAF7822B809398
:100F200068002DE630E0983050F02BE630E09E303F
:100F300030F02CE630E0963110F030E020E03093D5
:100F40007C0420937B04292F30E0983008F04EC1B8
:100F500081E001C0880F9A95EAF780937D04809123
:100F60008404909185040197F1F780918204909117
:100F70008304892B49F1E0910303F091040384E099
:100F8000E836F80709F1309739F0A389B4899C91C4
:100F90008589809589238C93809186048E7F8093A8
:100FA0008604109202031092010388E694E0909365
:100FB000040380930303E0917B04F0917C0480811F
:100FC00090917D04892B80830E94790267E271E011
:100FD00088E694E00E9434040E94790261E371E0A3
:100FE00088E694E00E9434040E94790269E471E08A
:100FF00088E694E00E94340464E571E08BE093E0BD
:101000000E9434040E9479020E9421040E94790205
:1010100060E671E08BE093E00E94340480E0E82E0B
:1010200080E0F82E84E00E94CC0189E00E94CC018F
:1010300085E00E94CC0186E00E94CC018AE00E94FB
:10104000CC018BE00E94CC01EC0190930A038093C9
:10105000090387E00E94CC018C01909308038093E0
:10106000070388E00E94CC01909306038093050358
:10107000012B09F048C0892B09F045C060E085E0EC
:101080000E94F50161E084E00E94F50160E086E0E5
:101090000E94F50160E089E00E94F50160E08AE0CD
:1010A0000E94F501219709F0AEC061E089E00E943D
:1010B000F50161E08AE00E94F50168E871E08BE0EB
:1010C00093E00E94340467E271E088E694E00E94B5
:1010D000340465EA71E088E694E00E9434046EEB23
:1010E00071E088E694E00E9434046EEB71E08BE0DE
:1010F00093E00E9434040E94210469EE71E08BE0C9
:1011000093E00E94340480910703909108030197B3
:1011100079F58091050390910603019749F561E007
:1011200085E00E94F50160E084E00E94F50160E046
:1011300086E00E94F50160E089E00E94F50160E030
:101140008AE00E94F5018091090390910A0360E012
:10115000019709F063C089E00E94F50161E08AE02F
:101160000E94F5016EE272E08BE093E00E9434048D
:101170008091070390910803009709F059C080916E
:10118000050390910603019709F05BC060E085E0DC
:101190000E94F50161E086E00E94F50160E084E0D4
:1011A0000E94F50160E089E00E94F50160E08AE0BC
:1011B0000E94F50166E672E08BE093E00E94340441
:1011C0008091090390910A0360E0019709F045C0FE
:1011D00089E00E94F50161E08AE00E94F5016FE775
:1011E00072E08BE093E00E9434042BC09E3040F408
:1011F0002850310981E001C0880F2A95EAF7ADCE69
:101200002E503109F7CF60E089E00E94F50160E0DF
:101210008AE00E94F5016DE072E071CF89E00E94E2
:10122000F50160E08AE00E94F5016DE472E09CCF78
:10123000019739F48091050390910603892B09F4F5
:10124000A5CFE114F10409F4EDCE0E94000188233A
:1012500009F4E8CE0E940000E5CE89E00E94F50185
:1012600060E08AE00E94F5016EE972E0BACF86E1A3
:1012700091E09093690480936804809103039091B6
:1012800004038856944071F4E0917B04F0917C044F
:10129000908180917D04809589238083109204033E
:1012A00010920303089597FB072E16F4009407D0BD
:1012B00077FD09D00E94670907FC05D03EF49095A0
:1012C00081959F4F0895709561957F4F0895AA1B52
:1012D000BB1B51E107C0AA1FBB1FA617B70710F021
:1012E000A61BB70B881F991F5A95A9F78095909553
:1012F000BC01CD010895EE0FFF1F0590F491E02D84
:10130000099410E0C2E6D0E004C0FE010E947B090F
:0C1310002196C336D107C9F7F894FFCF2F
:10131C000000000036019600C3008301F400D200E7
:10132C00E60000000000C70296005C03C60223031F
:10133C003B03AE020D0A0041542B434D47463D3151
:10134C000041542B434D47533D222B36303137341B
:10135C00353339313430220D00496E697469616C52
:10136C00697A6500496E697469616C697A656400B3
:10137C004D65737361676520686173206265656E86
:10138C002073656E7420746F207975736166797043
:10139C0070726F746575730053656E64696E672047
:1013AC004D65737361676520746F2079757361691E
:1013BC006B6D616C0041542B434D47533D222B36D2
:1013CC003031313339393338373734220D004174E9
:1013DC0074656E74696F6E2120596F757220636825
:1013EC00696C6420697320696E7369646520746824
:1013FC006520636172212121004D657373616765FE
:10140C0020686173206265656E2073656E7420744C
:10141C006F207975736120696B6D616C00737461F9
:10142C006E6462796D6F6465202F2F205573657221
:10143C00206C65667420746865206361720042617B
:10144C006279202B203220506172656E74205365B6
:10145C006174204F63636375706965640054776FC2
:10146C0020506172656E742073656174204F6363E4
:10147C007570696564004F6E6520706172656E747D
:10148C002073656174206F636375706965640042D5
:10149C00616279202B203120506172656E7420536B
:1014AC00656174204F6363637570696564004F6E8A
:1014BC006520506172656E742073656174204F6392
:0814CC0063757069656400009E
:00000001FF
