:020000040000FA
:100000000C9463000C948B000C948B000C942B04C8
:100010000C942B040C942B040C948B000C948B00EC
:100020000C948B000C948B000C948B000C948B0024
:100030000C948B000C948B000C948B000C948B0014
:100040000C94E1030C948B000C94AF030C94890383
:100050000C948B000C948B000C948B000C948B00F4
:100060000C948B000C948B000000000024002700EF
:100070002A0000000008000201000003040700003D
:1000800000000000000000000000230026002900FE
:1000900000000000250028002B00040404040404D0
:1000A0000404020202020202030303030303010227
:1000B00004081020408001020408102001020408F6
:1000C0001020A3043D0811241FBECFEFD8E0DEBFEF
:1000D000CDBF12E0A0E0B1E0E8E2F1E102C005909E
:1000E0000D92A035B107D9F723E0A0E5B2E001C039
:1000F0001D92AF35B207E1F710E0C2E6D0E004C0D0
:100100002197FE010E948108C136D107C9F70E94DC
:100110004E050C9487080C940000AF92BF92CF92CA
:10012000DF92EF92FF920F931F93CF93DF936C01B7
:100130007B018B01040F151FEB015E01AE18BF0898
:10014000C017D10759F06991D601ED91FC9101904A
:10015000F081E02DC6010995892B79F7C501DF9162
:10016000CF911F910F91FF90EF90DF90CF90BF90B4
:10017000AF900895FC01538D448D252F30E0842FDE
:1001800090E0821B930B541710F0CF9608950197BF
:100190000895FC01918D828D981761F0A28DAE0FAC
:1001A000BF2FB11D5D968C91928D9F5F9F73928F33
:1001B00090E008958FEF9FEF0895FC01918D828D5F
:1001C000981731F0828DE80FF11D858D90E008952C
:1001D0008FEF9FEF0895FC01918D228D892F90E084
:1001E000805C9F4F821B91098F739927089583EA42
:1001F00092E00E94EB0021E0892B09F420E0822F9D
:10020000089580E090E0892B29F00E94F700811189
:100210000C9400000895FC01A48DA80FB92FB11D06
:10022000A35ABF4F2C91848D90E001968F7399272C
:10023000848FA689B7892C93A089B1898C9183700A
:1002400080648C93938D848D981306C00288F38903
:10025000E02D80818F7D80830895EF92FF920F9330
:100260001F93CF93DF93EC0181E0888F9B8D8C8D62
:1002700098131AC0E889F989808185FF15C09FB756
:10028000F894EE89FF896083E889F9898081837019
:10029000806480839FBF81E090E0DF91CF911F91C8
:1002A0000F91FF90EF900895F62E0B8D10E00F5FE9
:1002B0001F4F0F731127E02E8C8D8E110CC00FB6BF
:1002C00007FCFACFE889F989808185FFF5CFCE0157
:1002D0000E940B01F1CFEB8DEC0FFD2FF11DE35AC6
:1002E000FF4FF0829FB7F8940B8FEA89FB898081DA
:1002F0008062CFCFCF93DF93EC01888D8823B9F054
:10030000AA89BB89E889F9898C9185FD03C0808120
:1003100086FD0DC00FB607FCF7CF8C9185FFF2CF9D
:10032000808185FFEDCFCE010E940B01E9CFDF91E7
:10033000CF910895833081F028F4813099F0823094
:10034000A9F008958730A9F08830C9F08430B1F45D
:10035000809180008F7D03C0809180008F77809393
:100360008000089584B58F7784BD089584B58F7D0E
:10037000FBCF8091B0008F778093B000089580917B
:10038000B0008F7DF9CFCF93DF93282F30E0F901B4
:10039000EE58FF4F8491F901E255FF4FD491F901D6
:1003A000E656FF4FC491CC23A1F081110E949A011F
:1003B000EC2FF0E0EE0FFF1FEA57FF4FA591B4912D
:1003C000EC91ED2381E090E009F480E0DF91CF91A2
:1003D000089580E090E0FACF1F93CF93DF93282F0A
:1003E00030E0F901EE58FF4F8491F901E255FF4FDB
:1003F000D491F901E656FF4FC491CC23A9F0162FF2
:1004000081110E949A01EC2FF0E0EE0FFF1FE057E0
:10041000FF4FA591B4918FB7F894EC91111108C0DA
:10042000D095DE23DC938FBFDF91CF911F9108958C
:10043000DE2BF8CFCF93DF9390E0FC01E255FF4F26
:10044000249186569F4FFC0184918823D1F090E03F
:10045000880F991FFC01E859FF4FA591B491FC0149
:10046000E057FF4FC591D49161110EC09FB7F8942A
:100470008C91E22FE0958E238C932881E223E883F0
:100480009FBFDF91CF9108958FB7F894EC91E22B45
:10049000EC938FBFF6CF3FB7F8948091950290917F
:1004A0009602A0919702B091980226B5A89B05C02C
:1004B0002F3F19F00196A11DB11D3FBFBA2FA92FE3
:1004C000982F8827BC01CD01620F711D811D911DE0
:1004D00042E0660F771F881F991F4A95D1F708954C
:1004E0008F929F92AF92BF92CF92DF92EF92FF9244
:1004F0004B015C010E944B026B017C010E944B028C
:100500006C197D098E099F09683E7340810591052C
:10051000A8F321E0821A9108A108B10888EEC80E5C
:1005200083E0D81EE11CF11C81149104A104B104E4
:1005300029F7FF90EF90DF90CF90BF90AF909F9002
:100540008F90089520919B0230919C0228173907C3
:1005500071F49091990280919A02981741F0E0917C
:100560009902F0E0E05BFD4F808190E008958FEF0D
:100570009FEF08950895EF92FF920F931F93CF93EB
:10058000DF93DC015C96ED90FC905D97E114F10443
:1005900079F481E090E013969C938E93129790E00B
:1005A00080E0DF91CF911F910F91FF90EF90089520
:1005B0005196ED91FC91529750968C915097982FAF
:1005C00090950FB75E962C915E97122F127021FDB9
:1005D0006095F8942081112319F1282B2083E701DD
:1005E0002197F1F728E0462F50E0308160FF1AC0D4
:1005F000382B3083E7012197F1F7BA01759567959C
:10060000215089F7112381F08081892380830FBFD6
:100610005C968D919C910197F1F781E090E0C1CFBC
:100620002923DCCF3923E5CF9081892BEFCF20918F
:100630009B0230919C022817390771F480919A022D
:100640002091990290E0805C9F4F821B910960E4A9
:1006500070E00E945908089590E080E0089520918C
:100660009B0230919C0228173907B9F490919902A6
:1006700080919A02981789F0E0919902F0E0E05B8E
:10068000FD4F80812091990230E02F5F3F4F2F7303
:1006900033272093990290E008958FEF9FEF0895FC
:1006A00090E080E00895FB0101900020E9F7319788
:1006B000AF01461B570BDC01ED91FC910280F381E9
:1006C000E02D0994CF93DF936AE180E493E00E94E8
:1006D000BB02EC0164E271E080E493E00E9453030A
:1006E0008C0F9D1FDF91CF9108950F931F93CF9390
:1006F000DF93EC010E9453038C0164E271E0CE01B0
:100700000E945303800F911FDF91CF911F910F9192
:1007100008951F920F920FB60F9211242F933F93BB
:100720004F935F936F937F938F939F93AF93BF93F9
:10073000EF93FF9383EA92E00E940B01FF91EF9108
:10074000BF91AF919F918F917F916F915F914F91E9
:100750003F912F910F900FBE0F901F9018951F92F1
:100760000F920FB60F9211242F938F939F93EF93B5
:10077000FF93E091B302F091B4028081E091B9025D
:10078000F091BA0282FD1BC090818091BC028F5F04
:100790008F732091BD02821741F0E091BC02F0E01E
:1007A000ED55FD4F958F8093BC02FF91EF919F9186
:1007B0008F912F910F900FBE0F901F9018958081F1
:1007C000F4CF1F920F920FB60F9211242F933F93E5
:1007D0008F939F93AF93BF938091910290919202D8
:1007E000A0919302B09194023091900223E0230FE4
:1007F0002D3758F50196A11DB11D209390028093CD
:10080000910290939202A0939302B09394028091EC
:10081000950290919602A0919702B091980201964C
:10082000A11DB11D8093950290939602A09397020B
:10083000B0939802BF91AF919F918F913F912F916B
:100840000F900FBE0F901F90189526E8230F029669
:10085000A11DB11DD2CF1F920F920FB60F9211247E
:100860002F933F934F935F936F937F938F939F93B8
:10087000AF93BF93EF93FF93E0919B02F0919C02A3
:10088000309749F0A685B7858585968D91FF14C070
:100890009C918923A1F4FF91EF91BF91AF919F911A
:1008A0008F917F916F915F914F913F912F910F9019
:1008B0000FBE0F901F9018959C91892361F7A38913
:1008C000B4899C918589809589238C9386899789A1
:1008D0000197F1F7608D718DA685B785558538E054
:1008E00020E0CB010197F1F7822F90E09595879555
:1008F000282F4C91452309F02068315091F7868DBF
:1009000081FD209580919A0290E001968F7399273E
:1009100030919902381799F0A0919A02B0E0A05B4B
:10092000BD4F2C9380939A02828D938D0197F1F79E
:10093000A389B4898C919589892B8C93ACCF868DB2
:100940008160868FF1CF1092A6021092A50288EEE8
:1009500093E0A0E0B0E08093A7029093A802A09358
:10096000A902B093AA0224E031E03093A4022093BC
:10097000A30225EC30E03093B0022093AF0224ECC8
:1009800030E03093B2022093B10220EC30E030939B
:10099000B4022093B30221EC30E03093B6022093EE
:1009A000B50222EC30E03093B8022093B70226EC77
:1009B00030E03093BA022093B9021092BC02109238
:1009C000BD021092BE021092BF0210924303109219
:1009D00042038093440390934503A0934603B0934E
:1009E000470386E191E09093410380934003109286
:1009F0005703109256031092590310925803109205
:100A00005B0310925A0310925D0310925C03609195
:100A10005E036E7F6D7F60935E036695617081E01B
:100A2000682783E00E94EC0161E083E00E941A02E3
:100A3000E1EBF0E0E491E0935003EDE9F0E0E491C4
:100A4000F0E0EE0FFF1FE057FF4F859194919093D8
:100A500052038093510360E082E00E941A02809169
:100A60005E0381FD04C061E082E00E94EC0182E04F
:100A700080934C03E0EBF0E0E491E0934D03ECE96C
:100A8000F0E0E491F0E0EE0FFF1FEA57FF4F859191
:100A9000949190934F0380934E030895789484B576
:100AA000826084BD84B5816084BD85B5826085BD6A
:100AB00085B5816085BD80916E00816080936E00F8
:100AC00010928100809181008260809381008091EA
:100AD000810081608093810080918000816080939B
:100AE00080008091B10084608093B1008091B0005B
:100AF00081608093B00080917A00846080937A0056
:100B000080917A00826080937A0080917A0081607F
:100B100080937A0080917A00806880937A001092A6
:100B2000C10060E084E00E941A0260E089E00E9457
:100B30001A0260E085E00E941A0260E086E00E94EE
:100B40001A0260E08AE00E941A0260E08BE00E94D4
:100B50001A0260E087E00E941A0260E088E00E94CA
:100B60001A0261E085E00E941A0261E084E00E94BE
:100B70001A0261E086E00E941A0261E08AE00E94A7
:100B80001A0261E089E00E941A02E091B302F0913A
:100B9000B40282E08083E091AF02F091B002108253
:100BA000E091B102F091B2028FEC80831092BB020F
:100BB000E091B702F091B80286E08083E091B5023F
:100BC000F091B602808180618083E091B502F0915E
:100BD000B602808188608083E091B502F091B60210
:100BE000808180688083E091B502F091B6028081B7
:100BF0008F7D808310925B0310925A0310925903E9
:100C00001092580310925703109256038DEC90E007
:100C100090935D0380935C0390914C03963108F0B0
:100C200047C025E530E030935703209356032BEC63
:100C300030E0309359032093580320E930E030939B
:100C40005B0320935A032091680084E0983048F0B9
:100C500031E09E3008F430E081E001C0880F3A9521
:100C6000EAF7822B809368002DE630E0983050F050
:100C70002BE630E09E3030F02CE630E0963110F07C
:100C800030E020E03093540320935303292F30E0C9
:100C9000983008F0A1C181E001C0880F9A95EAF769
:100CA0008093550380915C0390915D030197F1F768
:100CB00080915A0390915B03892B49F1E0919B024B
:100CC000F0919C0283E0E034F80709F1309739F0A5
:100CD000A389B4899C918589809589238C9380917F
:100CE0005E038E7F80935E0310929A0210929902A7
:100CF00080E493E090939C0280939B02E0915303E5
:100D0000F0915403808190915503892B808360E199
:100D100077E280E090E00E94700267E271E080E498
:100D200093E00E94750368EE73E080E090E00E941B
:100D3000700261E371E080E493E00E94750368EE65
:100D400073E080E090E00E9470026AE471E080E469
:100D500093E00E94750364E670E080E090E00E94FA
:100D600070020E94620368EE73E080E090E00E94EF
:100D7000700265E571E083EA92E00E94750380E00D
:100D8000C82E80E0D82E84E00E94C30189E00E9432
:100D9000C30185E00E94C30186E00E94C3018AE08E
:100DA0000E94C3018BE00E94C301EC019093A20258
:100DB0008093A10287E00E94C3017C019093A0026E
:100DC00080939F0288E00E94C3018C0190939E0251
:100DD00080939D0268EB7BE080E090E00E947002CF
:100DE000EA94EF2809F06DC00130110509F069C0DF
:100DF00060E085E00E94EC0161E084E00E94EC018B
:100E000060E086E00E94EC0160E089E00E94EC0175
:100E100060E08AE00E94EC0168EE73E080E090E020
:100E20000E94700268EE73E080E090E0219709F084
:100E3000E0C00E94700261E089E00E94EC0161E084
:100E40008AE00E94EC016BE671E083EA92E00E9486
:100E5000750367E271E080E493E00E94750368EE39
:100E600073E080E090E00E94700261E371E080E452
:100E700093E00E94750368EE73E080E090E00E94CA
:100E800070026BE771E080E493E00E9475036BE70A
:100E900071E083EA92E00E94750364E670E080E00E
:100EA00090E00E9470020E94620368EE73E080E0AE
:100EB00090E00E94700265E571E083EA92E00E9492
:100EC000750380919F029091A002892BD9F58091A2
:100ED0009D0290919E02892BA9F561E085E00E9418
:100EE000EC0160E084E00E94EC0160E086E00E949A
:100EF000EC0160E089E00E94EC0160E08AE00E9481
:100F0000EC0168EE73E080E090E00E947002809156
:100F1000A1029091A202019709F078C068EE73E0F7
:100F200080E090E00E94700260E089E00E94EC01A5
:100F300061E08AE00E94EC0167EC71E083EA92E0F4
:100F40000E94750380919F029091A002009709F082
:100F50006EC080919D0290919E02019709F070C031
:100F600060E085E00E94EC0161E086E00E94EC0117
:100F700060E084E00E94EC0160E089E00E94EC0106
:100F800060E08AE00E94EC0168EE73E080E090E0AF
:100F90000E9470026FEF71E083EA92E00E94750395
:100FA0008091A1029091A202019709F055C068EECC
:100FB00073E080E090E00E94700260E089E00E94AF
:100FC000EC0161E08AE00E94EC0168E172E083EAF2
:100FD00092E00E94750334C09E3040F428503109DD
:100FE00081E001C0880F2A95EAF75ACE2E503109C8
:100FF000F7CF0E94700260E089E00E94EC0160E09F
:101000008AE00E94EC0166EA71E057CF68EE73E077
:1010100080E090E00E94700260E089E00E94EC01B4
:1010200060E08AE00E94EC0166EE71E087CF0197F4
:1010300039F480919D0290919E02892B09F490CF02
:10104000C114D10409F49FCE0E94F700882309F44B
:101050009ACE0E94000097CE68EE73E080E090E0A8
:101060000E94700260E089E00E94EC0160E08AE08A
:101070000E94EC0167E372E0AACF86E191E09093D1
:1010800041038093400380919B0290919C02805485
:10109000934071F4E0915303F09154039081809157
:1010A000550380958923808310929C0210929B02A5
:1010B000089597FB072E16F4009407D077FD09D00A
:1010C0000E946D0807FC05D03EF4909581959F4FD6
:1010D0000895709561957F4F0895AA1BBB1B51E140
:1010E00007C0AA1FBB1FA617B70710F0A61BB70B98
:1010F000881F991F5A95A9F780959095BC01CD013D
:101100000895EE0FFF1F0590F491E02D099410E073
:10111000C2E6D0E004C0FE010E9481082196C336D9
:10112000D107C9F7F894FFCF000000002D018D0012
:10113000BA007A01EB00C900DD0000000000BB022C
:101140008D005003BA0217032F03A2020D0A0041BB
:10115000542B434D47463D310041542B434D47539B
:101160003D222B3630313133393933383737342259
:101170000D00496E697469616C697A65004D65732B
:101180007361676520686173206265656E207365B1
:101190006E740053656E64696E67204D657373618C
:1011A000676500417474656E74696F6E2120596FB4
:1011B0007572206368696C6420697320696E736955
:1011C0006465207468652063617221212100737455
:1011D000616E6462796D6F6465202F2F2055736591
:1011E00072206C65667420746865206361720042C9
:1011F000616279202B203220506172656E74205319
:10120000656174204F63636375706965640054772A
:101210006F20506172656E742073656174204F6336
:10122000637570696564004F6E6520706172656EEC
:10123000742073656174206F636375706965640001
:1012400042616279202B203120506172656E7420DA
:1012500053656174204F6363637570696564004F03
:101260006E6520506172656E742073656174204FE5
:08127000636375706965640099
:107E0000112484B714BE81FFF0D085E080938100F7
:107E100082E08093C00088E18093C10086E0809377
:107E2000C20080E18093C4008EE0C9D0259A86E02C
:107E300020E33CEF91E0309385002093840096BBD3
:107E4000B09BFECF1D9AA8958150A9F7CC24DD24C4
:107E500088248394B5E0AB2EA1E19A2EF3E0BF2EE7
:107E6000A2D0813461F49FD0082FAFD0023811F036
:107E7000013811F484E001C083E08DD089C08234E0
:107E800011F484E103C0853419F485E0A6D080C0E4
:107E9000853579F488D0E82EFF2485D0082F10E0AE
:107EA000102F00270E291F29000F111F8ED06801E7
:107EB0006FC0863521F484E090D080E0DECF843638
:107EC00009F040C070D06FD0082F6DD080E0C81688
:107ED00080E7D80618F4F601B7BEE895C0E0D1E017
:107EE00062D089930C17E1F7F0E0CF16F0E7DF06D8
:107EF00018F0F601B7BEE89568D007B600FCFDCFD4
:107F0000A601A0E0B1E02C9130E011968C91119780
:107F100090E0982F8827822B932B1296FA010C0160
:107F200087BEE89511244E5F5F4FF1E0A038BF0790
:107F300051F7F601A7BEE89507B600FCFDCF97BE46
:107F4000E89526C08437B1F42ED02DD0F82E2BD052
:107F50003CD0F601EF2C8F010F5F1F4F84911BD097
:107F6000EA94F801C1F70894C11CD11CFA94CF0C13
:107F7000D11C0EC0853739F428D08EE10CD085E9AC
:107F80000AD08FE07ACF813511F488E018D01DD067
:107F900080E101D065CF982F8091C00085FFFCCF94
:107FA0009093C60008958091C00087FFFCCF809118
:107FB000C00084FD01C0A8958091C6000895E0E648
:107FC000F0E098E1908380830895EDDF803219F02E
:107FD00088E0F5DFFFCF84E1DECF1F93182FE3DFCA
:107FE0001150E9F7F2DF1F91089580E0E8DFEE27F6
:047FF000FF270994CA
:027FFE00040479
:00000001FF
